{
  "contracts/BasicDutchAuction.sol": {
    "BasicDutchAuction": {
      "abi": [
        {
          "inputs": [
            {
              "internalType": "uint256",
              "name": "_reservePrice",
              "type": "uint256"
            },
            {
              "internalType": "uint256",
              "name": "_numBlocksAuctionOpen",
              "type": "uint256"
            },
            {
              "internalType": "uint256",
              "name": "_offerPriceDecrement",
              "type": "uint256"
            }
          ],
          "stateMutability": "nonpayable",
          "type": "constructor"
        },
        {
          "anonymous": false,
          "inputs": [
            {
              "indexed": true,
              "internalType": "address",
              "name": "bidder",
              "type": "address"
            },
            {
              "indexed": false,
              "internalType": "uint256",
              "name": "refundAmount",
              "type": "uint256"
            },
            {
              "indexed": false,
              "internalType": "uint256",
              "name": "contractBalance",
              "type": "uint256"
            }
          ],
          "name": "RefundInfo",
          "type": "event"
        },
        {
          "inputs": [],
          "name": "auctionEndTime",
          "outputs": [
            {
              "internalType": "uint256",
              "name": "",
              "type": "uint256"
            }
          ],
          "stateMutability": "view",
          "type": "function"
        },
        {
          "inputs": [],
          "name": "auctionEnded",
          "outputs": [
            {
              "internalType": "bool",
              "name": "",
              "type": "bool"
            }
          ],
          "stateMutability": "view",
          "type": "function"
        },
        {
          "inputs": [],
          "name": "auctionStartTime",
          "outputs": [
            {
              "internalType": "uint256",
              "name": "",
              "type": "uint256"
            }
          ],
          "stateMutability": "view",
          "type": "function"
        },
        {
          "inputs": [],
          "name": "bid",
          "outputs": [],
          "stateMutability": "payable",
          "type": "function"
        },
        {
          "inputs": [],
          "name": "getCurrentPrice",
          "outputs": [
            {
              "internalType": "uint256",
              "name": "",
              "type": "uint256"
            }
          ],
          "stateMutability": "view",
          "type": "function"
        },
        {
          "inputs": [],
          "name": "initialPrice",
          "outputs": [
            {
              "internalType": "uint256",
              "name": "",
              "type": "uint256"
            }
          ],
          "stateMutability": "view",
          "type": "function"
        },
        {
          "inputs": [],
          "name": "numBlocksAuctionOpen",
          "outputs": [
            {
              "internalType": "uint256",
              "name": "",
              "type": "uint256"
            }
          ],
          "stateMutability": "view",
          "type": "function"
        },
        {
          "inputs": [],
          "name": "offerPriceDecrement",
          "outputs": [
            {
              "internalType": "uint256",
              "name": "",
              "type": "uint256"
            }
          ],
          "stateMutability": "view",
          "type": "function"
        },
        {
          "inputs": [],
          "name": "reservePrice",
          "outputs": [
            {
              "internalType": "uint256",
              "name": "",
              "type": "uint256"
            }
          ],
          "stateMutability": "view",
          "type": "function"
        },
        {
          "inputs": [],
          "name": "seller",
          "outputs": [
            {
              "internalType": "address payable",
              "name": "",
              "type": "address"
            }
          ],
          "stateMutability": "view",
          "type": "function"
        },
        {
          "inputs": [
            {
              "internalType": "string",
              "name": "_greeting",
              "type": "string"
            }
          ],
          "name": "setGreeting",
          "outputs": [],
          "stateMutability": "nonpayable",
          "type": "function"
        },
        {
          "inputs": [],
          "name": "winner",
          "outputs": [
            {
              "internalType": "address",
              "name": "",
              "type": "address"
            }
          ],
          "stateMutability": "view",
          "type": "function"
        }
      ],
      "evm": {
        "bytecode": {
          "linkReferences": {},
          "object": "608060405234801561001057600080fd5b506040516106b73803806106b783398101604081905261002f916100a7565b600080546001600160a01b031916331790556001839055600282905560038190554360058190556100619083906100d4565b6006556003546002546100769060019061010b565b61008091906100ec565b60015461008d91906100d4565b600481905560075550506008805460ff1916905550610138565b6000806000606084860312156100bb578283fd5b8351925060208401519150604084015190509250925092565b600082198211156100e7576100e7610122565b500190565b600081600019048311821515161561010657610106610122565b500290565b60008282101561011d5761011d610122565b500390565b634e487b7160e01b600052601160045260246000fd5b610570806101476000396000f3fe6080604052600436106100a75760003560e01c8063a413686211610064578063a41368621461016d578063d3642a881461018b578063db2e1eed146101a1578063dfbf53ae146101b7578063eb54f9ec146101dc578063eb91d37e146101f257600080fd5b806308551a53146100ac5780631998aeef146100e95780631d0806ae146100f35780633103ea62146101175780634b449cba1461012d5780638643337414610143575b600080fd5b3480156100b857600080fd5b506000546100cc906001600160a01b031681565b6040516001600160a01b0390911681526020015b60405180910390f35b6100f1610207565b005b3480156100ff57600080fd5b5061010960045481565b6040519081526020016100e0565b34801561012357600080fd5b5061010960025481565b34801561013957600080fd5b5061010960065481565b34801561014f57600080fd5b5060085461015d9060ff1681565b60405190151581526020016100e0565b34801561017957600080fd5b506100f1610188366004610416565b50565b34801561019757600080fd5b5061010960035481565b3480156101ad57600080fd5b5061010960015481565b3480156101c357600080fd5b506008546100cc9061010090046001600160a01b031681565b3480156101e857600080fd5b5061010960055481565b3480156101fe57600080fd5b506101096103d2565b60085460ff161561025f5760405162461bcd60e51b815260206004820152601960248201527f41756374696f6e2068617320616c726561647920656e6465640000000000000060448201526064015b60405180910390fd5b600654431115610277576008805460ff191660011790555b6006544311156102e35760405162461bcd60e51b815260206004820152603160248201527f41756374696f6e2068617320657863656564656420746865206d6178696d756d604482015270206e756d626572206f6620626c6f636b7360781b6064820152608401610256565b6003546005546102f390436104f7565b6102fe9060016104c0565b61030891906104d8565b60045461031591906104f7565b3410156103765760405162461bcd60e51b815260206004820152602960248201527f42696420616d6f756e74206973206c657373207468616e207468652063757272604482015268656e7420707269636560b81b6064820152608401610256565b600080546040516001600160a01b03909116913480156108fc02929091818181858888f193505050501580156103b0573d6000803e3d6000fd5b506008805460ff196101003302166001600160a81b0319909116176001179055565b600080600554436103e391906104f7565b905060025481106103f657505060015490565b60035461040390826104d8565b60045461041091906104f7565b91505090565b600060208284031215610427578081fd5b813567ffffffffffffffff8082111561043e578283fd5b818401915084601f830112610451578283fd5b81358181111561046357610463610524565b604051601f8201601f19908116603f0116810190838211818310171561048b5761048b610524565b816040528281528760208487010111156104a3578586fd5b826020860160208301379182016020019490945295945050505050565b600082198211156104d3576104d361050e565b500190565b60008160001904831182151516156104f2576104f261050e565b500290565b6000828210156105095761050961050e565b500390565b634e487b7160e01b600052601160045260246000fd5b634e487b7160e01b600052604160045260246000fdfea2646970667358221220b7325bc05e39f046db8ea28b4cc3bf9f04ee28c9d4f7f5a8f339b76297c47adc64736f6c63430008040033",
          "opcodes": "PUSH1 0x80 PUSH1 0x40 MSTORE CALLVALUE DUP1 ISZERO PUSH2 0x10 JUMPI PUSH1 0x0 DUP1 REVERT JUMPDEST POP PUSH1 0x40 MLOAD PUSH2 0x6B7 CODESIZE SUB DUP1 PUSH2 0x6B7 DUP4 CODECOPY DUP2 ADD PUSH1 0x40 DUP2 SWAP1 MSTORE PUSH2 0x2F SWAP2 PUSH2 0xA7 JUMP JUMPDEST PUSH1 0x0 DUP1 SLOAD PUSH1 0x1 PUSH1 0x1 PUSH1 0xA0 SHL SUB NOT AND CALLER OR SWAP1 SSTORE PUSH1 0x1 DUP4 SWAP1 SSTORE PUSH1 0x2 DUP3 SWAP1 SSTORE PUSH1 0x3 DUP2 SWAP1 SSTORE NUMBER PUSH1 0x5 DUP2 SWAP1 SSTORE PUSH2 0x61 SWAP1 DUP4 SWAP1 PUSH2 0xD4 JUMP JUMPDEST PUSH1 0x6 SSTORE PUSH1 0x3 SLOAD PUSH1 0x2 SLOAD PUSH2 0x76 SWAP1 PUSH1 0x1 SWAP1 PUSH2 0x10B JUMP JUMPDEST PUSH2 0x80 SWAP2 SWAP1 PUSH2 0xEC JUMP JUMPDEST PUSH1 0x1 SLOAD PUSH2 0x8D SWAP2 SWAP1 PUSH2 0xD4 JUMP JUMPDEST PUSH1 0x4 DUP2 SWAP1 SSTORE PUSH1 0x7 SSTORE POP POP PUSH1 0x8 DUP1 SLOAD PUSH1 0xFF NOT AND SWAP1 SSTORE POP PUSH2 0x138 JUMP JUMPDEST PUSH1 0x0 DUP1 PUSH1 0x0 PUSH1 0x60 DUP5 DUP7 SUB SLT ISZERO PUSH2 0xBB JUMPI DUP3 DUP4 REVERT JUMPDEST DUP4 MLOAD SWAP3 POP PUSH1 0x20 DUP5 ADD MLOAD SWAP2 POP PUSH1 0x40 DUP5 ADD MLOAD SWAP1 POP SWAP3 POP SWAP3 POP SWAP3 JUMP JUMPDEST PUSH1 0x0 DUP3 NOT DUP3 GT ISZERO PUSH2 0xE7 JUMPI PUSH2 0xE7 PUSH2 0x122 JUMP JUMPDEST POP ADD SWAP1 JUMP JUMPDEST PUSH1 0x0 DUP2 PUSH1 0x0 NOT DIV DUP4 GT DUP3 ISZERO ISZERO AND ISZERO PUSH2 0x106 JUMPI PUSH2 0x106 PUSH2 0x122 JUMP JUMPDEST POP MUL SWAP1 JUMP JUMPDEST PUSH1 0x0 DUP3 DUP3 LT ISZERO PUSH2 0x11D JUMPI PUSH2 0x11D PUSH2 0x122 JUMP JUMPDEST POP SUB SWAP1 JUMP JUMPDEST PUSH4 0x4E487B71 PUSH1 0xE0 SHL PUSH1 0x0 MSTORE PUSH1 0x11 PUSH1 0x4 MSTORE PUSH1 0x24 PUSH1 0x0 REVERT JUMPDEST PUSH2 0x570 DUP1 PUSH2 0x147 PUSH1 0x0 CODECOPY PUSH1 0x0 RETURN INVALID PUSH1 0x80 PUSH1 0x40 MSTORE PUSH1 0x4 CALLDATASIZE LT PUSH2 0xA7 JUMPI PUSH1 0x0 CALLDATALOAD PUSH1 0xE0 SHR DUP1 PUSH4 0xA4136862 GT PUSH2 0x64 JUMPI DUP1 PUSH4 0xA4136862 EQ PUSH2 0x16D JUMPI DUP1 PUSH4 0xD3642A88 EQ PUSH2 0x18B JUMPI DUP1 PUSH4 0xDB2E1EED EQ PUSH2 0x1A1 JUMPI DUP1 PUSH4 0xDFBF53AE EQ PUSH2 0x1B7 JUMPI DUP1 PUSH4 0xEB54F9EC EQ PUSH2 0x1DC JUMPI DUP1 PUSH4 0xEB91D37E EQ PUSH2 0x1F2 JUMPI PUSH1 0x0 DUP1 REVERT JUMPDEST DUP1 PUSH4 0x8551A53 EQ PUSH2 0xAC JUMPI DUP1 PUSH4 0x1998AEEF EQ PUSH2 0xE9 JUMPI DUP1 PUSH4 0x1D0806AE EQ PUSH2 0xF3 JUMPI DUP1 PUSH4 0x3103EA62 EQ PUSH2 0x117 JUMPI DUP1 PUSH4 0x4B449CBA EQ PUSH2 0x12D JUMPI DUP1 PUSH4 0x86433374 EQ PUSH2 0x143 JUMPI JUMPDEST PUSH1 0x0 DUP1 REVERT JUMPDEST CALLVALUE DUP1 ISZERO PUSH2 0xB8 JUMPI PUSH1 0x0 DUP1 REVERT JUMPDEST POP PUSH1 0x0 SLOAD PUSH2 0xCC SWAP1 PUSH1 0x1 PUSH1 0x1 PUSH1 0xA0 SHL SUB AND DUP2 JUMP JUMPDEST PUSH1 0x40 MLOAD PUSH1 0x1 PUSH1 0x1 PUSH1 0xA0 SHL SUB SWAP1 SWAP2 AND DUP2 MSTORE PUSH1 0x20 ADD JUMPDEST PUSH1 0x40 MLOAD DUP1 SWAP2 SUB SWAP1 RETURN JUMPDEST PUSH2 0xF1 PUSH2 0x207 JUMP JUMPDEST STOP JUMPDEST CALLVALUE DUP1 ISZERO PUSH2 0xFF JUMPI PUSH1 0x0 DUP1 REVERT JUMPDEST POP PUSH2 0x109 PUSH1 0x4 SLOAD DUP2 JUMP JUMPDEST PUSH1 0x40 MLOAD SWAP1 DUP2 MSTORE PUSH1 0x20 ADD PUSH2 0xE0 JUMP JUMPDEST CALLVALUE DUP1 ISZERO PUSH2 0x123 JUMPI PUSH1 0x0 DUP1 REVERT JUMPDEST POP PUSH2 0x109 PUSH1 0x2 SLOAD DUP2 JUMP JUMPDEST CALLVALUE DUP1 ISZERO PUSH2 0x139 JUMPI PUSH1 0x0 DUP1 REVERT JUMPDEST POP PUSH2 0x109 PUSH1 0x6 SLOAD DUP2 JUMP JUMPDEST CALLVALUE DUP1 ISZERO PUSH2 0x14F JUMPI PUSH1 0x0 DUP1 REVERT JUMPDEST POP PUSH1 0x8 SLOAD PUSH2 0x15D SWAP1 PUSH1 0xFF AND DUP2 JUMP JUMPDEST PUSH1 0x40 MLOAD SWAP1 ISZERO ISZERO DUP2 MSTORE PUSH1 0x20 ADD PUSH2 0xE0 JUMP JUMPDEST CALLVALUE DUP1 ISZERO PUSH2 0x179 JUMPI PUSH1 0x0 DUP1 REVERT JUMPDEST POP PUSH2 0xF1 PUSH2 0x188 CALLDATASIZE PUSH1 0x4 PUSH2 0x416 JUMP JUMPDEST POP JUMP JUMPDEST CALLVALUE DUP1 ISZERO PUSH2 0x197 JUMPI PUSH1 0x0 DUP1 REVERT JUMPDEST POP PUSH2 0x109 PUSH1 0x3 SLOAD DUP2 JUMP JUMPDEST CALLVALUE DUP1 ISZERO PUSH2 0x1AD JUMPI PUSH1 0x0 DUP1 REVERT JUMPDEST POP PUSH2 0x109 PUSH1 0x1 SLOAD DUP2 JUMP JUMPDEST CALLVALUE DUP1 ISZERO PUSH2 0x1C3 JUMPI PUSH1 0x0 DUP1 REVERT JUMPDEST POP PUSH1 0x8 SLOAD PUSH2 0xCC SWAP1 PUSH2 0x100 SWAP1 DIV PUSH1 0x1 PUSH1 0x1 PUSH1 0xA0 SHL SUB AND DUP2 JUMP JUMPDEST CALLVALUE DUP1 ISZERO PUSH2 0x1E8 JUMPI PUSH1 0x0 DUP1 REVERT JUMPDEST POP PUSH2 0x109 PUSH1 0x5 SLOAD DUP2 JUMP JUMPDEST CALLVALUE DUP1 ISZERO PUSH2 0x1FE JUMPI PUSH1 0x0 DUP1 REVERT JUMPDEST POP PUSH2 0x109 PUSH2 0x3D2 JUMP JUMPDEST PUSH1 0x8 SLOAD PUSH1 0xFF AND ISZERO PUSH2 0x25F JUMPI PUSH1 0x40 MLOAD PUSH3 0x461BCD PUSH1 0xE5 SHL DUP2 MSTORE PUSH1 0x20 PUSH1 0x4 DUP3 ADD MSTORE PUSH1 0x19 PUSH1 0x24 DUP3 ADD MSTORE PUSH32 0x41756374696F6E2068617320616C726561647920656E64656400000000000000 PUSH1 0x44 DUP3 ADD MSTORE PUSH1 0x64 ADD JUMPDEST PUSH1 0x40 MLOAD DUP1 SWAP2 SUB SWAP1 REVERT JUMPDEST PUSH1 0x6 SLOAD NUMBER GT ISZERO PUSH2 0x277 JUMPI PUSH1 0x8 DUP1 SLOAD PUSH1 0xFF NOT AND PUSH1 0x1 OR SWAP1 SSTORE JUMPDEST PUSH1 0x6 SLOAD NUMBER GT ISZERO PUSH2 0x2E3 JUMPI PUSH1 0x40 MLOAD PUSH3 0x461BCD PUSH1 0xE5 SHL DUP2 MSTORE PUSH1 0x20 PUSH1 0x4 DUP3 ADD MSTORE PUSH1 0x31 PUSH1 0x24 DUP3 ADD MSTORE PUSH32 0x41756374696F6E2068617320657863656564656420746865206D6178696D756D PUSH1 0x44 DUP3 ADD MSTORE PUSH17 0x206E756D626572206F6620626C6F636B73 PUSH1 0x78 SHL PUSH1 0x64 DUP3 ADD MSTORE PUSH1 0x84 ADD PUSH2 0x256 JUMP JUMPDEST PUSH1 0x3 SLOAD PUSH1 0x5 SLOAD PUSH2 0x2F3 SWAP1 NUMBER PUSH2 0x4F7 JUMP JUMPDEST PUSH2 0x2FE SWAP1 PUSH1 0x1 PUSH2 0x4C0 JUMP JUMPDEST PUSH2 0x308 SWAP2 SWAP1 PUSH2 0x4D8 JUMP JUMPDEST PUSH1 0x4 SLOAD PUSH2 0x315 SWAP2 SWAP1 PUSH2 0x4F7 JUMP JUMPDEST CALLVALUE LT ISZERO PUSH2 0x376 JUMPI PUSH1 0x40 MLOAD PUSH3 0x461BCD PUSH1 0xE5 SHL DUP2 MSTORE PUSH1 0x20 PUSH1 0x4 DUP3 ADD MSTORE PUSH1 0x29 PUSH1 0x24 DUP3 ADD MSTORE PUSH32 0x42696420616D6F756E74206973206C657373207468616E207468652063757272 PUSH1 0x44 DUP3 ADD MSTORE PUSH9 0x656E74207072696365 PUSH1 0xB8 SHL PUSH1 0x64 DUP3 ADD MSTORE PUSH1 0x84 ADD PUSH2 0x256 JUMP JUMPDEST PUSH1 0x0 DUP1 SLOAD PUSH1 0x40 MLOAD PUSH1 0x1 PUSH1 0x1 PUSH1 0xA0 SHL SUB SWAP1 SWAP2 AND SWAP2 CALLVALUE DUP1 ISZERO PUSH2 0x8FC MUL SWAP3 SWAP1 SWAP2 DUP2 DUP2 DUP2 DUP6 DUP9 DUP9 CALL SWAP4 POP POP POP POP ISZERO DUP1 ISZERO PUSH2 0x3B0 JUMPI RETURNDATASIZE PUSH1 0x0 DUP1 RETURNDATACOPY RETURNDATASIZE PUSH1 0x0 REVERT JUMPDEST POP PUSH1 0x8 DUP1 SLOAD PUSH1 0xFF NOT PUSH2 0x100 CALLER MUL AND PUSH1 0x1 PUSH1 0x1 PUSH1 0xA8 SHL SUB NOT SWAP1 SWAP2 AND OR PUSH1 0x1 OR SWAP1 SSTORE JUMP JUMPDEST PUSH1 0x0 DUP1 PUSH1 0x5 SLOAD NUMBER PUSH2 0x3E3 SWAP2 SWAP1 PUSH2 0x4F7 JUMP JUMPDEST SWAP1 POP PUSH1 0x2 SLOAD DUP2 LT PUSH2 0x3F6 JUMPI POP POP PUSH1 0x1 SLOAD SWAP1 JUMP JUMPDEST PUSH1 0x3 SLOAD PUSH2 0x403 SWAP1 DUP3 PUSH2 0x4D8 JUMP JUMPDEST PUSH1 0x4 SLOAD PUSH2 0x410 SWAP2 SWAP1 PUSH2 0x4F7 JUMP JUMPDEST SWAP2 POP POP SWAP1 JUMP JUMPDEST PUSH1 0x0 PUSH1 0x20 DUP3 DUP5 SUB SLT ISZERO PUSH2 0x427 JUMPI DUP1 DUP2 REVERT JUMPDEST DUP2 CALLDATALOAD PUSH8 0xFFFFFFFFFFFFFFFF DUP1 DUP3 GT ISZERO PUSH2 0x43E JUMPI DUP3 DUP4 REVERT JUMPDEST DUP2 DUP5 ADD SWAP2 POP DUP5 PUSH1 0x1F DUP4 ADD SLT PUSH2 0x451 JUMPI DUP3 DUP4 REVERT JUMPDEST DUP2 CALLDATALOAD DUP2 DUP2 GT ISZERO PUSH2 0x463 JUMPI PUSH2 0x463 PUSH2 0x524 JUMP JUMPDEST PUSH1 0x40 MLOAD PUSH1 0x1F DUP3 ADD PUSH1 0x1F NOT SWAP1 DUP2 AND PUSH1 0x3F ADD AND DUP2 ADD SWAP1 DUP4 DUP3 GT DUP2 DUP4 LT OR ISZERO PUSH2 0x48B JUMPI PUSH2 0x48B PUSH2 0x524 JUMP JUMPDEST DUP2 PUSH1 0x40 MSTORE DUP3 DUP2 MSTORE DUP8 PUSH1 0x20 DUP5 DUP8 ADD ADD GT ISZERO PUSH2 0x4A3 JUMPI DUP6 DUP7 REVERT JUMPDEST DUP3 PUSH1 0x20 DUP7 ADD PUSH1 0x20 DUP4 ADD CALLDATACOPY SWAP2 DUP3 ADD PUSH1 0x20 ADD SWAP5 SWAP1 SWAP5 MSTORE SWAP6 SWAP5 POP POP POP POP POP JUMP JUMPDEST PUSH1 0x0 DUP3 NOT DUP3 GT ISZERO PUSH2 0x4D3 JUMPI PUSH2 0x4D3 PUSH2 0x50E JUMP JUMPDEST POP ADD SWAP1 JUMP JUMPDEST PUSH1 0x0 DUP2 PUSH1 0x0 NOT DIV DUP4 GT DUP3 ISZERO ISZERO AND ISZERO PUSH2 0x4F2 JUMPI PUSH2 0x4F2 PUSH2 0x50E JUMP JUMPDEST POP MUL SWAP1 JUMP JUMPDEST PUSH1 0x0 DUP3 DUP3 LT ISZERO PUSH2 0x509 JUMPI PUSH2 0x509 PUSH2 0x50E JUMP JUMPDEST POP SUB SWAP1 JUMP JUMPDEST PUSH4 0x4E487B71 PUSH1 0xE0 SHL PUSH1 0x0 MSTORE PUSH1 0x11 PUSH1 0x4 MSTORE PUSH1 0x24 PUSH1 0x0 REVERT JUMPDEST PUSH4 0x4E487B71 PUSH1 0xE0 SHL PUSH1 0x0 MSTORE PUSH1 0x41 PUSH1 0x4 MSTORE PUSH1 0x24 PUSH1 0x0 REVERT INVALID LOG2 PUSH5 0x6970667358 0x22 SLT KECCAK256 0xB7 ORIGIN JUMPDEST 0xC0 0x5E CODECOPY CREATE CHAINID 0xDB DUP15 LOG2 DUP12 0x4C 0xC3 0xBF SWAP16 DIV 0xEE 0x28 0xC9 0xD4 0xF7 CREATE2 0xA8 RETURN CODECOPY 0xB7 PUSH3 0x97C47A 0xDC PUSH5 0x736F6C6343 STOP ADDMOD DIV STOP CALLER "
        },
        "methodIdentifiers": {
          "auctionEndTime()": "4b449cba",
          "auctionEnded()": "86433374",
          "auctionStartTime()": "eb54f9ec",
          "bid()": "1998aeef",
          "getCurrentPrice()": "eb91d37e",
          "initialPrice()": "1d0806ae",
          "numBlocksAuctionOpen()": "3103ea62",
          "offerPriceDecrement()": "d3642a88",
          "reservePrice()": "db2e1eed",
          "seller()": "08551a53",
          "setGreeting(string)": "a4136862",
          "winner()": "dfbf53ae"
        }
      }
    }
  }
}