{
  "_format": "hh-sol-artifact-1",
  "contractName": "BasicDutchAuction",
  "sourceName": "contracts/BasicDutchAuction.sol",
  "abi": [
    {
      "inputs": [
        {
          "internalType": "uint256",
          "name": "_reservePrice",
          "type": "uint256"
        },
        {
          "internalType": "uint256",
          "name": "_numBlocksAuctionOpen",
          "type": "uint256"
        },
        {
          "internalType": "uint256",
          "name": "_offerPriceDecrement",
          "type": "uint256"
        }
      ],
      "stateMutability": "nonpayable",
      "type": "constructor"
    },
    {
      "anonymous": false,
      "inputs": [
        {
          "indexed": true,
          "internalType": "address",
          "name": "bidder",
          "type": "address"
        },
        {
          "indexed": false,
          "internalType": "uint256",
          "name": "refundAmount",
          "type": "uint256"
        },
        {
          "indexed": false,
          "internalType": "uint256",
          "name": "contractBalance",
          "type": "uint256"
        }
      ],
      "name": "RefundInfo",
      "type": "event"
    },
    {
      "inputs": [],
      "name": "auctionEndTime",
      "outputs": [
        {
          "internalType": "uint256",
          "name": "",
          "type": "uint256"
        }
      ],
      "stateMutability": "view",
      "type": "function"
    },
    {
      "inputs": [],
      "name": "auctionEnded",
      "outputs": [
        {
          "internalType": "bool",
          "name": "",
          "type": "bool"
        }
      ],
      "stateMutability": "view",
      "type": "function"
    },
    {
      "inputs": [],
      "name": "auctionStartTime",
      "outputs": [
        {
          "internalType": "uint256",
          "name": "",
          "type": "uint256"
        }
      ],
      "stateMutability": "view",
      "type": "function"
    },
    {
      "inputs": [],
      "name": "bid",
      "outputs": [],
      "stateMutability": "payable",
      "type": "function"
    },
    {
      "inputs": [],
      "name": "getCurrentPrice",
      "outputs": [
        {
          "internalType": "uint256",
          "name": "",
          "type": "uint256"
        }
      ],
      "stateMutability": "view",
      "type": "function"
    },
    {
      "inputs": [],
      "name": "initialPrice",
      "outputs": [
        {
          "internalType": "uint256",
          "name": "",
          "type": "uint256"
        }
      ],
      "stateMutability": "view",
      "type": "function"
    },
    {
      "inputs": [],
      "name": "numBlocksAuctionOpen",
      "outputs": [
        {
          "internalType": "uint256",
          "name": "",
          "type": "uint256"
        }
      ],
      "stateMutability": "view",
      "type": "function"
    },
    {
      "inputs": [],
      "name": "offerPriceDecrement",
      "outputs": [
        {
          "internalType": "uint256",
          "name": "",
          "type": "uint256"
        }
      ],
      "stateMutability": "view",
      "type": "function"
    },
    {
      "inputs": [],
      "name": "reservePrice",
      "outputs": [
        {
          "internalType": "uint256",
          "name": "",
          "type": "uint256"
        }
      ],
      "stateMutability": "view",
      "type": "function"
    },
    {
      "inputs": [],
      "name": "seller",
      "outputs": [
        {
          "internalType": "address payable",
          "name": "",
          "type": "address"
        }
      ],
      "stateMutability": "view",
      "type": "function"
    },
    {
      "inputs": [
        {
          "internalType": "string",
          "name": "_greeting",
          "type": "string"
        }
      ],
      "name": "setGreeting",
      "outputs": [],
      "stateMutability": "nonpayable",
      "type": "function"
    },
    {
      "inputs": [],
      "name": "winner",
      "outputs": [
        {
          "internalType": "address",
          "name": "",
          "type": "address"
        }
      ],
      "stateMutability": "view",
      "type": "function"
    }
  ],
  "bytecode": "0x60806040523480156200001157600080fd5b5060405162000d9738038062000d97833981810160405281019062000037919062000124565b336000806101000a81548173ffffffffffffffffffffffffffffffffffffffff021916908373ffffffffffffffffffffffffffffffffffffffff16021790555082600181905550816002819055508060038190555043600581905550600254600554620000a591906200017a565b6006819055506003546001600254620000bf919062000238565b620000cb9190620001d7565b600154620000da91906200017a565b6004819055506004546007819055506000600860006101000a81548160ff021916908315150217905550505050620002c6565b6000815190506200011e81620002ac565b92915050565b6000806000606084860312156200013a57600080fd5b60006200014a868287016200010d565b93505060206200015d868287016200010d565b925050604062000170868287016200010d565b9150509250925092565b6000620001878262000273565b9150620001948362000273565b9250827fffffffffffffffffffffffffffffffffffffffffffffffffffffffffffffffff03821115620001cc57620001cb6200027d565b5b828201905092915050565b6000620001e48262000273565b9150620001f18362000273565b9250817fffffffffffffffffffffffffffffffffffffffffffffffffffffffffffffffff04831182151516156200022d576200022c6200027d565b5b828202905092915050565b6000620002458262000273565b9150620002528362000273565b9250828210156200026857620002676200027d565b5b828203905092915050565b6000819050919050565b7f4e487b7100000000000000000000000000000000000000000000000000000000600052601160045260246000fd5b620002b78162000273565b8114620002c357600080fd5b50565b610ac180620002d66000396000f3fe6080604052600436106100a75760003560e01c8063a413686211610064578063a41368621461018d578063d3642a88146101b6578063db2e1eed146101e1578063dfbf53ae1461020c578063eb54f9ec14610237578063eb91d37e14610262576100a7565b806308551a53146100ac5780631998aeef146100d75780631d0806ae146100e15780633103ea621461010c5780634b449cba146101375780638643337414610162575b600080fd5b3480156100b857600080fd5b506100c161028d565b6040516100ce91906106bf565b60405180910390f35b6100df6102b1565b005b3480156100ed57600080fd5b506100f66104a7565b6040516101039190610755565b60405180910390f35b34801561011857600080fd5b506101216104ad565b60405161012e9190610755565b60405180910390f35b34801561014357600080fd5b5061014c6104b3565b6040516101599190610755565b60405180910390f35b34801561016e57600080fd5b506101776104b9565b60405161018491906106da565b60405180910390f35b34801561019957600080fd5b506101b460048036038101906101af91906105be565b6104cc565b005b3480156101c257600080fd5b506101cb6104d5565b6040516101d89190610755565b60405180910390f35b3480156101ed57600080fd5b506101f66104db565b6040516102039190610755565b60405180910390f35b34801561021857600080fd5b506102216104e1565b60405161022e91906106a4565b60405180910390f35b34801561024357600080fd5b5061024c610507565b6040516102599190610755565b60405180910390f35b34801561026e57600080fd5b5061027761050d565b6040516102849190610755565b60405180910390f35b60008054906101000a900473ffffffffffffffffffffffffffffffffffffffff1681565b600860009054906101000a900460ff1615610301576040517f08c379a00000000000000000000000000000000000000000000000000000000081526004016102f8906106f5565b60405180910390fd5b600654431115610327576001600860006101000a81548160ff0219169083151502179055505b60065443111561036c576040517f08c379a000000000000000000000000000000000000000000000000000000000815260040161036390610735565b60405180910390fd5b60035460016005544361037f9190610887565b61038991906107d7565b610393919061082d565b6004546103a09190610887565b3410156103e2576040517f08c379a00000000000000000000000000000000000000000000000000000000081526004016103d990610715565b60405180910390fd5b60008054906101000a900473ffffffffffffffffffffffffffffffffffffffff1673ffffffffffffffffffffffffffffffffffffffff166108fc349081150290604051600060405180830381858888f19350505050158015610448573d6000803e3d6000fd5b5033600860016101000a81548173ffffffffffffffffffffffffffffffffffffffff021916908373ffffffffffffffffffffffffffffffffffffffff1602179055506001600860006101000a81548160ff021916908315150217905550565b60045481565b60025481565b60065481565b600860009054906101000a900460ff1681565b60008190505050565b60035481565b60015481565b600860019054906101000a900473ffffffffffffffffffffffffffffffffffffffff1681565b60055481565b6000806005544361051e9190610887565b9050600254811061053457600154915050610553565b60035481610542919061082d565b60045461054f9190610887565b9150505b90565b600061056961056484610795565b610770565b90508281526020810184848401111561058157600080fd5b61058c848285610915565b509392505050565b600082601f8301126105a557600080fd5b81356105b5848260208601610556565b91505092915050565b6000602082840312156105d057600080fd5b600082013567ffffffffffffffff8111156105ea57600080fd5b6105f684828501610594565b91505092915050565b610608816108cd565b82525050565b610617816108bb565b82525050565b610626816108df565b82525050565b60006106396019836107c6565b9150610644826109c4565b602082019050919050565b600061065c6029836107c6565b9150610667826109ed565b604082019050919050565b600061067f6031836107c6565b915061068a82610a3c565b604082019050919050565b61069e8161090b565b82525050565b60006020820190506106b9600083018461060e565b92915050565b60006020820190506106d460008301846105ff565b92915050565b60006020820190506106ef600083018461061d565b92915050565b6000602082019050818103600083015261070e8161062c565b9050919050565b6000602082019050818103600083015261072e8161064f565b9050919050565b6000602082019050818103600083015261074e81610672565b9050919050565b600060208201905061076a6000830184610695565b92915050565b600061077a61078b565b90506107868282610924565b919050565b6000604051905090565b600067ffffffffffffffff8211156107b0576107af610984565b5b6107b9826109b3565b9050602081019050919050565b600082825260208201905092915050565b60006107e28261090b565b91506107ed8361090b565b9250827fffffffffffffffffffffffffffffffffffffffffffffffffffffffffffffffff0382111561082257610821610955565b5b828201905092915050565b60006108388261090b565b91506108438361090b565b9250817fffffffffffffffffffffffffffffffffffffffffffffffffffffffffffffffff048311821515161561087c5761087b610955565b5b828202905092915050565b60006108928261090b565b915061089d8361090b565b9250828210156108b0576108af610955565b5b828203905092915050565b60006108c6826108eb565b9050919050565b60006108d8826108eb565b9050919050565b60008115159050919050565b600073ffffffffffffffffffffffffffffffffffffffff82169050919050565b6000819050919050565b82818337600083830152505050565b61092d826109b3565b810181811067ffffffffffffffff8211171561094c5761094b610984565b5b80604052505050565b7f4e487b7100000000000000000000000000000000000000000000000000000000600052601160045260246000fd5b7f4e487b7100000000000000000000000000000000000000000000000000000000600052604160045260246000fd5b6000601f19601f8301169050919050565b7f41756374696f6e2068617320616c726561647920656e64656400000000000000600082015250565b7f42696420616d6f756e74206973206c657373207468616e20746865206375727260008201527f656e742070726963650000000000000000000000000000000000000000000000602082015250565b7f41756374696f6e2068617320657863656564656420746865206d6178696d756d60008201527f206e756d626572206f6620626c6f636b7300000000000000000000000000000060208201525056fea2646970667358221220ff1ff6e0da7e0e578db81675325322174e863e24e152fa2f51a4c35e29dc939564736f6c63430008040033",
  "linkReferences": {},
  "deployedLinkReferences": {}
}